{
  "contractName": "ClockTowerToken",
  "abi": [
    {
      "constant": true,
      "inputs": [],
      "name": "name",
      "outputs": [
        {
          "name": "",
          "type": "string"
        }
      ],
      "payable": false,
      "stateMutability": "view",
      "type": "function"
    },
    {
      "constant": true,
      "inputs": [],
      "name": "decimals",
      "outputs": [
        {
          "name": "",
          "type": "uint8"
        }
      ],
      "payable": false,
      "stateMutability": "view",
      "type": "function"
    },
    {
      "constant": false,
      "inputs": [],
      "name": "acceptOwnership",
      "outputs": [],
      "payable": false,
      "stateMutability": "nonpayable",
      "type": "function"
    },
    {
      "constant": true,
      "inputs": [],
      "name": "owner",
      "outputs": [
        {
          "name": "",
          "type": "address"
        }
      ],
      "payable": false,
      "stateMutability": "view",
      "type": "function"
    },
    {
      "constant": true,
      "inputs": [],
      "name": "symbol",
      "outputs": [
        {
          "name": "",
          "type": "string"
        }
      ],
      "payable": false,
      "stateMutability": "view",
      "type": "function"
    },
    {
      "constant": true,
      "inputs": [],
      "name": "newOwner",
      "outputs": [
        {
          "name": "",
          "type": "address"
        }
      ],
      "payable": false,
      "stateMutability": "view",
      "type": "function"
    },
    {
      "constant": false,
      "inputs": [
        {
          "name": "_newOwner",
          "type": "address"
        }
      ],
      "name": "transferOwnership",
      "outputs": [],
      "payable": false,
      "stateMutability": "nonpayable",
      "type": "function"
    },
    {
      "inputs": [],
      "payable": false,
      "stateMutability": "nonpayable",
      "type": "constructor"
    },
    {
      "payable": true,
      "stateMutability": "payable",
      "type": "fallback"
    },
    {
      "anonymous": false,
      "inputs": [
        {
          "indexed": true,
          "name": "from",
          "type": "address"
        },
        {
          "indexed": false,
          "name": "spendMsg",
          "type": "string"
        }
      ],
      "name": "TokenSpend",
      "type": "event"
    },
    {
      "anonymous": false,
      "inputs": [
        {
          "indexed": true,
          "name": "_from",
          "type": "address"
        },
        {
          "indexed": true,
          "name": "_to",
          "type": "address"
        }
      ],
      "name": "OwnershipTransferred",
      "type": "event"
    },
    {
      "anonymous": false,
      "inputs": [
        {
          "indexed": true,
          "name": "from",
          "type": "address"
        },
        {
          "indexed": true,
          "name": "to",
          "type": "address"
        },
        {
          "indexed": false,
          "name": "tokens",
          "type": "uint256"
        }
      ],
      "name": "Transfer",
      "type": "event"
    },
    {
      "anonymous": false,
      "inputs": [
        {
          "indexed": true,
          "name": "tokenOwner",
          "type": "address"
        },
        {
          "indexed": true,
          "name": "spender",
          "type": "address"
        },
        {
          "indexed": false,
          "name": "tokens",
          "type": "uint256"
        }
      ],
      "name": "Approval",
      "type": "event"
    },
    {
      "constant": false,
      "inputs": [
        {
          "name": "to",
          "type": "address"
        }
      ],
      "name": "transferOneToken",
      "outputs": [
        {
          "name": "success",
          "type": "bool"
        }
      ],
      "payable": false,
      "stateMutability": "nonpayable",
      "type": "function"
    },
    {
      "constant": false,
      "inputs": [
        {
          "name": "spendMessage",
          "type": "string"
        }
      ],
      "name": "spendOneToken",
      "outputs": [
        {
          "name": "success",
          "type": "bool"
        }
      ],
      "payable": false,
      "stateMutability": "nonpayable",
      "type": "function"
    },
    {
      "constant": false,
      "inputs": [],
      "name": "requestOneToken",
      "outputs": [
        {
          "name": "success",
          "type": "bool"
        }
      ],
      "payable": false,
      "stateMutability": "nonpayable",
      "type": "function"
    },
    {
      "constant": true,
      "inputs": [],
      "name": "totalSupply",
      "outputs": [
        {
          "name": "",
          "type": "uint256"
        }
      ],
      "payable": false,
      "stateMutability": "view",
      "type": "function"
    },
    {
      "constant": true,
      "inputs": [
        {
          "name": "tokenOwner",
          "type": "address"
        }
      ],
      "name": "balanceOf",
      "outputs": [
        {
          "name": "balance",
          "type": "uint256"
        }
      ],
      "payable": false,
      "stateMutability": "view",
      "type": "function"
    },
    {
      "constant": false,
      "inputs": [
        {
          "name": "to",
          "type": "address"
        },
        {
          "name": "tokens",
          "type": "uint256"
        }
      ],
      "name": "transfer",
      "outputs": [
        {
          "name": "success",
          "type": "bool"
        }
      ],
      "payable": false,
      "stateMutability": "nonpayable",
      "type": "function"
    },
    {
      "constant": false,
      "inputs": [
        {
          "name": "spender",
          "type": "address"
        },
        {
          "name": "tokens",
          "type": "uint256"
        }
      ],
      "name": "approve",
      "outputs": [
        {
          "name": "success",
          "type": "bool"
        }
      ],
      "payable": false,
      "stateMutability": "nonpayable",
      "type": "function"
    },
    {
      "constant": false,
      "inputs": [
        {
          "name": "from",
          "type": "address"
        },
        {
          "name": "to",
          "type": "address"
        },
        {
          "name": "tokens",
          "type": "uint256"
        }
      ],
      "name": "transferFrom",
      "outputs": [
        {
          "name": "success",
          "type": "bool"
        }
      ],
      "payable": false,
      "stateMutability": "nonpayable",
      "type": "function"
    },
    {
      "constant": true,
      "inputs": [
        {
          "name": "tokenOwner",
          "type": "address"
        },
        {
          "name": "spender",
          "type": "address"
        }
      ],
      "name": "allowance",
      "outputs": [
        {
          "name": "remaining",
          "type": "uint256"
        }
      ],
      "payable": false,
      "stateMutability": "view",
      "type": "function"
    },
    {
      "constant": false,
      "inputs": [
        {
          "name": "tokenAddress",
          "type": "address"
        },
        {
          "name": "tokens",
          "type": "uint256"
        }
      ],
      "name": "transferAnyERC20Token",
      "outputs": [
        {
          "name": "success",
          "type": "bool"
        }
      ],
      "payable": false,
      "stateMutability": "nonpayable",
      "type": "function"
    }
  ],
  "bytecode": "0x608060405234801561001057600080fd5b5060008054600160a060020a031916331790556040805180820190915260078082527f4343544e6f6f6e000000000000000000000000000000000000000000000000006020909201918252610067916002916100dd565b506040805180820190915260158082527f43727970746f436c6f636b546f7765722d4e6f6f6e000000000000000000000060209092019182526100ac916003916100dd565b506004805460ff1916905561016d600581905560008054600160a060020a0316815260066020526040902055610178565b828054600181600116156101000203166002900490600052602060002090601f016020900481019282601f1061011e57805160ff191683800117855561014b565b8280016001018555821561014b579182015b8281111561014b578251825591602001919060010190610130565b5061015792915061015b565b5090565b61017591905b808211156101575760008155600101610161565b90565b610a2f806101876000396000f3006080604052600436106100f05763ffffffff7c010000000000000000000000000000000000000000000000000000000060003504166306fdde0381146100f5578063095ea7b31461017f5780630e91495d146101b757806318160ddd146101d857806323b872dd146101ff578063313ce5671461022957806370a082311461025457806379ba5097146102755780638da5cb5b1461028c57806395d89b41146102bd578063a9059cbb1461017f578063d4ee1d90146102d2578063dc39d06d146102e7578063dd62ed3e1461030b578063df5f5ec114610332578063e9960fb814610347578063f2fde38b146103a0575b600080fd5b34801561010157600080fd5b5061010a6103c1565b6040805160208082528351818301528351919283929083019185019080838360005b8381101561014457818101518382015260200161012c565b50505050905090810190601f1680156101715780820380516001836020036101000a031916815260200191505b509250505060405180910390f35b34801561018b57600080fd5b506101a3600160a060020a036004351660243561044f565b604080519115158252519081900360200190f35b3480156101c357600080fd5b506101a3600160a060020a036004351661047c565b3480156101e457600080fd5b506101ed61052e565b60408051918252519081900360200190f35b34801561020b57600080fd5b506101a3600160a060020a0360043581169060243516604435610535565b34801561023557600080fd5b5061023e610577565b6040805160ff9092168252519081900360200190f35b34801561026057600080fd5b506101ed600160a060020a0360043516610580565b34801561028157600080fd5b5061028a61059b565b005b34801561029857600080fd5b506102a1610623565b60408051600160a060020a039092168252519081900360200190f35b3480156102c957600080fd5b5061010a610632565b3480156102de57600080fd5b506102a161068a565b3480156102f357600080fd5b506101a3600160a060020a0360043516602435610699565b34801561031757600080fd5b506101ed600160a060020a0360043581169060243516610754565b34801561033e57600080fd5b506101a361075b565b34801561035357600080fd5b506040805160206004803580820135601f81018490048402850184019095528484526101a39436949293602493928401919081908401838280828437509497506108409650505050505050565b3480156103ac57600080fd5b5061028a600160a060020a0360043516610998565b6003805460408051602060026001851615610100026000190190941693909304601f810184900484028201840190925281815292918301828280156104475780601f1061041c57610100808354040283529160200191610447565b820191906000526020600020905b81548152906001019060200180831161042a57829003601f168201915b505050505081565b6000600160a060020a038316151561046657600080fd5b81151561047257600080fd5b5060005b92915050565b3360009081526006602052604081205461049d90600163ffffffff6109de16565b3360009081526006602052604080822092909255600160a060020a038416815220546104d090600163ffffffff6109f316565b600160a060020a038316600081815260066020908152604091829020939093558051600181529051919233927fddf252ad1be2c89b69c2b068fc378daa952ba7f163c4a11628f55a4df523b3ef9281900390910190a3506001919050565b6005545b90565b6000600160a060020a038416151561054c57600080fd5b600160a060020a038316151561056157600080fd5b81151561056d57600080fd5b5060009392505050565b60045460ff1681565b600160a060020a031660009081526006602052604090205490565b600154600160a060020a031633146105b257600080fd5b60015460008054604051600160a060020a0393841693909116917f8be0079c531659141344cd1fd0a4f28419497f9722a3daafe3b4186f6b6457e091a3600180546000805473ffffffffffffffffffffffffffffffffffffffff19908116600160a060020a03841617909155169055565b600054600160a060020a031681565b6002805460408051602060018416156101000260001901909316849004601f810184900484028201840190925281815292918301828280156104475780601f1061041c57610100808354040283529160200191610447565b600154600160a060020a031681565b60008054600160a060020a031633146106b157600080fd5b60008054604080517fa9059cbb000000000000000000000000000000000000000000000000000000008152600160a060020a0392831660048201526024810186905290519186169263a9059cbb926044808401936020939083900390910190829087803b15801561072157600080fd5b505af1158015610735573d6000803e3d6000fd5b505050506040513d602081101561074b57600080fd5b50519392505050565b6000610476565b60008054600160a060020a031681526006602052604081205460c8111561078457506000610532565b60008054600160a060020a03168152600660205260409020546107ae90600163ffffffff6109de16565b60008054600160a060020a03168152600660205260408082209290925533815220546107e190600163ffffffff6109f316565b33600081815260066020908152604080832094909455905483516001815293519293600160a060020a03909116927fddf252ad1be2c89b69c2b068fc378daa952ba7f163c4a11628f55a4df523b3ef929181900390910190a350600190565b3360009081526006602052604081205461086190600163ffffffff6109de16565b33600090815260066020526040808220929092558054600160a060020a03168152205461089590600163ffffffff6109f316565b60008054600160a060020a03168152600660209081526040808320939093558251818152855181830152855133947f90381b693060084698819e579735c0ef49ea3895cf65dcf79d6a313d2ff5e1b5948894849392840192908601918190849084905b838110156109105781810151838201526020016108f8565b50505050905090810190601f16801561093d5780820380516001836020036101000a031916815260200191505b509250505060405180910390a260005460408051600181529051600160a060020a039092169133917fddf252ad1be2c89b69c2b068fc378daa952ba7f163c4a11628f55a4df523b3ef919081900360200190a3506001919050565b600054600160a060020a031633146109af57600080fd5b6001805473ffffffffffffffffffffffffffffffffffffffff1916600160a060020a0392909216919091179055565b6000828211156109ed57600080fd5b50900390565b8181018281101561047657600080fd00a165627a7a72305820f1882f97bc4667ed135a23d6bd266e2691b9f6f49b649d0ca96fbbfafa14f34a0029",
  "source": "pragma solidity ^0.4.24;\n// ----------------------------------------------------------------------------\n//CryptoClockTower-Noon\n// ----------------------------------------------------------------------------\n\n// ----------------------------------------------------------------------------\n// Safe maths\n// ----------------------------------------------------------------------------\nlibrary SafeMath {\n    function add(uint a, uint b) internal pure returns (uint c) {\n        c = a + b;\n        require(c >= a);\n    }\n    function sub(uint a, uint b) internal pure returns (uint c) {\n        require(b <= a);\n        c = a - b;\n    }\n    function mul(uint a, uint b) internal pure returns (uint c) {\n        c = a * b;\n        require(a == 0 || c / a == b);\n    }\n    function div(uint a, uint b) internal pure returns (uint c) {\n        require(b > 0);\n        c = a / b;\n    }\n}\n\n// ----------------------------------------------------------------------------\n// ERC Token Standard #20 Interface\n// https://github.com/ethereum/EIPs/blob/master/EIPS/eip-20.md\n// ----------------------------------------------------------------------------\ncontract ERC20Interface {\n    function totalSupply() public constant returns (uint);\n    function balanceOf(address tokenOwner) public constant returns (uint balance);\n    function allowance(address tokenOwner, address spender) public constant returns (uint remaining);\n    function transfer(address to, uint tokens) public returns (bool success);\n    function approve(address spender, uint tokens) public returns (bool success);\n    function transferFrom(address from, address to, uint tokens) public returns (bool success);\n\n    event Transfer(address indexed from, address indexed to, uint tokens);\n    event Approval(address indexed tokenOwner, address indexed spender, uint tokens);\n}\n\n// ----------------------------------------------------------------------------\n// Owned contract\n// ----------------------------------------------------------------------------\ncontract Owned {\n    address public owner;\n    address public newOwner;\n\n    event OwnershipTransferred(address indexed _from, address indexed _to);\n\n    constructor() public {\n        owner = msg.sender;\n    }\n\n    modifier onlyOwner {\n        require(msg.sender == owner);\n        _;\n    }\n\n    function transferOwnership(address _newOwner) public onlyOwner {\n        newOwner = _newOwner;\n    }\n    function acceptOwnership() public {\n        require(msg.sender == newOwner);\n        emit OwnershipTransferred(owner, newOwner);\n        owner = newOwner;\n        newOwner = address(0);\n    }\n}\n\n// ----------------------------------------------------------------------------\n// ERC20 Token with fixed supply and the addition of symbol,  decimals=0 \n// and single-token interaction extensions.\n// ----------------------------------------------------------------------------\ncontract ClockTowerToken is ERC20Interface, Owned {\n    using SafeMath for uint;\n\n    string public symbol;\n    string public  name;\n    uint8 public decimals;\n    uint _totalSupply;\n\n    mapping(address => uint) balances;\n\n    event TokenSpend(address indexed from, string spendMsg);\n    \n    // ExpirationTimes for each account (in the case where an address holds (or has held) multiple tokens, this value will be the Maximum Expiration Time (ie that of the last token to expire)\n//    mapping(address => uint) expirationTimes;\n    \n    // ExpirationTimeArrays for each account � only defined in the case where an address holds (or has held) >1 token\n//   mapping (address => uint64[]) public expirationTimeArrays; //\n\n    // ------------------------------------------------------------------------\n    // Constructor\n    // ------------------------------------------------------------------------\n    constructor() public {\n        symbol = \"CCTNoon\";\n        name = \"CryptoClockTower-Noon\";\n        decimals = 0;\n        _totalSupply = 365;\n        balances[owner] = _totalSupply;\n    }\n\n    // ------------------------------------------------------------------------\n    // Transfer one token from token owner's account to `to` account\n    // - Token owner's account must have one token to transfer\n    // ------------------------------------------------------------------------\n    function transferOneToken(address to) public returns (bool success) {\n        balances[msg.sender] = balances[msg.sender].sub(1);\n        balances[to] = balances[to].add(1);\n        emit Transfer(msg.sender, to, 1);\n        return true;\n    }\n    \n    // ------------------------------------------------------------------------\n    // Spend one token from token owner's account\n    // - Token owner's account must have one token to spend\n    // ------------------------------------------------------------------------\n    function spendOneToken(string spendMessage) public returns (bool success) {\n        balances[msg.sender] = balances[msg.sender].sub(1);\n        balances[owner] = balances[owner].add(1);\n        emit TokenSpend(msg.sender,spendMessage);\n        emit Transfer(msg.sender, owner, 1);\n        return true;\n    }\n    \n    // ------------------------------------------------------------------------\n    // Request one token this is a kind of faucet) to be given away\n    // - Balance of owner must be above a threshold to allow the give away\n    // ------------------------------------------------------------------------\n    function requestOneToken() public returns (bool success) {\n        if (balances[owner] < 200) //Don't give away too much (we may never get it back)\n          return false;\n        balances[owner] = balances[owner].sub(1);\n        balances[msg.sender] = balances[msg.sender].add(1);\n        emit Transfer(owner,msg.sender, 1);\n        return true;\n    }\n    \n    // ------------------------------------------------------------------------\n    // Total supply\n    // ------------------------------------------------------------------------\n    function totalSupply() public view returns (uint) {\n//        return _totalSupply.sub(balances[address(0)]);\n        return _totalSupply;\n    }\n\n    // ------------------------------------------------------------------------\n    // Get the token balance for account `tokenOwner`\n    // ------------------------------------------------------------------------\n    function balanceOf(address tokenOwner) public view returns (uint balance) {\n        return balances[tokenOwner];\n    }\n\n    // ------------------------------------------------------------------------\n    // Transfer the balance from token owner's account to `to` account\n    // - Owner's account must have sufficient balance to transfer\n    // - 0 value transfers are allowed\n    // ------------------------------------------------------------------------\n    function transfer(address to, uint tokens) public returns (bool success) {\n//        balances[msg.sender] = balances[msg.sender].sub(tokens);\n//        balances[to] = balances[to].add(tokens);\n//        emit Transfer(msg.sender, to, tokens);\n//        return true;\n        require(to != 0);\n        require(tokens != 0);\n        return false;\n    }\n\n    // ------------------------------------------------------------------------\n    // Token owner can approve for `spender` to transferFrom(...) `tokens`\n    // from the token owner's account\n    //\n    // https://github.com/ethereum/EIPs/blob/master/EIPS/eip-20-token-standard.md\n    // recommends that there are no checks for the approval double-spend attack\n    // as this should be implemented in user interfaces \n    // ------------------------------------------------------------------------\n    function approve(address spender, uint tokens) public returns (bool success) {\n//        allowed[msg.sender][spender] = tokens;\n//        emit Approval(msg.sender, spender, tokens);\n//        return true;\n        require(spender != 0);\n        require(tokens != 0);\n        return false;\n    }\n\n    // ------------------------------------------------------------------------\n    // Transfer `tokens` from the `from` account to the `to` account\n    // \n    // The calling account must already have sufficient tokens approve(...)-d\n    // for spending from the `from` account and\n    // - From account must have sufficient balance to transfer\n    // - Spender must have sufficient allowance to transfer\n    // - 0 value transfers are allowed\n    // ------------------------------------------------------------------------\n    function transferFrom(address from, address to, uint tokens) public returns (bool success) {\n//        balances[from] = balances[from].sub(tokens);\n//        allowed[from][msg.sender] = allowed[from][msg.sender].sub(tokens);\n//        balances[to] = balances[to].add(tokens);\n//        emit Transfer(from, to, tokens);\n//        return true;\n        require(from != 0);\n        require(to != 0);\n        require(tokens != 0);\n        return false;\n    }\n\n    // ------------------------------------------------------------------------\n    // Returns the amount of tokens approved by the owner that can be\n    // transferred to the spender's account\n    // ------------------------------------------------------------------------\n    function allowance(address tokenOwner, address spender) public view returns (uint remaining) {\n//        return allowed[tokenOwner][spender];\n        return 0;\n        require(tokenOwner != 0);\n        require(spender != 0);\n    }\n\n    // ------------------------------------------------------------------------\n    // Token owner can approve for `spender` to transferFrom(...) `tokens`\n    // from the token owner's account. The `spender` contract function\n    // `receiveApproval(...)` is then executed\n    // ------------------------------------------------------------------------\n//    function approveAndCall(address spender, uint tokens, bytes data) public returns (bool success) {\n//        allowed[msg.sender][spender] = tokens;\n//        emit Approval(msg.sender, spender, tokens);\n//        ApproveAndCallFallBack(spender).receiveApproval(msg.sender, tokens, this, data);\n//        return true;\n//        return false;\n//    }\n\n    // ------------------------------------------------------------------------\n    // Don't accept ETH\n    // ------------------------------------------------------------------------\n    function () public payable {\n        revert();\n    }\n\n    // ------------------------------------------------------------------------\n    // Owner can transfer out any accidentally sent ERC20 tokens\n    // ------------------------------------------------------------------------\n    function transferAnyERC20Token(address tokenAddress, uint tokens) public onlyOwner returns (bool success) {\n        return ERC20Interface(tokenAddress).transfer(owner, tokens);\n    }\n}",
  "sourcePath": "F:\\Stuff\\NodeJS\\07DrizzleClockTower\\contracts\\ClockTowerToken.sol",
  "compiler": {
    "name": "solc",
    "version": "0.4.24+commit.e67f0147.Emscripten.clang"
  },
  "schemaVersion": "2.0.1",
  "updatedAt": "2018-10-25T03:52:03.435Z"
}